{"abi":[{"type":"function","name":"createCampaign","inputs":[{"name":"title","type":"string","internalType":"string"},{"name":"description","type":"string","internalType":"string"},{"name":"goal","type":"uint256","internalType":"uint256"},{"name":"expirationDate","type":"uint64","internalType":"uint64"},{"name":"minimunAmount","type":"uint256","internalType":"uint256"}],"outputs":[],"stateMutability":"nonpayable"},{"type":"function","name":"s_campaigns","inputs":[{"name":"campaignId","type":"uint256","internalType":"uint256"}],"outputs":[{"name":"creator","type":"address","internalType":"address"},{"name":"title","type":"string","internalType":"string"},{"name":"description","type":"string","internalType":"string"},{"name":"goal","type":"uint256","internalType":"uint256"},{"name":"expirationDate","type":"uint64","internalType":"uint64"},{"name":"amountRaised","type":"uint256","internalType":"uint256"},{"name":"status","type":"uint8","internalType":"enum Counter.CampaignStatus"}],"stateMutability":"view"},{"type":"function","name":"s_contribution","inputs":[{"name":"contributor","type":"address","internalType":"address"}],"outputs":[{"name":"amountContributed","type":"uint256","internalType":"uint256"}],"stateMutability":"view"}],"bytecode":{"object":"0x6080604052348015600e575f5ffd5b506107ac8061001c5f395ff3fe608060405234801561000f575f5ffd5b506004361061003f575f3560e01c80631b9621e01461004357806372155f001461005f578063bdaa00211461008f575b5f5ffd5b61005d60048036038101906100589190610426565b6100c5565b005b6100796004803603810190610074919061052f565b6100cc565b6040516100869190610569565b60405180910390f35b6100a960048036038101906100a49190610582565b6100e1565b6040516100bc979695949392919061069e565b60405180910390f35b5050505050565b6001602052805f5260405f205f915090505481565b6002602052805f5260405f205f91509050805f015f9054906101000a900473ffffffffffffffffffffffffffffffffffffffff169080600101805461012590610746565b80601f016020809104026020016040519081016040528092919081815260200182805461015190610746565b801561019c5780601f106101735761010080835404028352916020019161019c565b820191905f5260205f20905b81548152906001019060200180831161017f57829003601f168201915b5050505050908060020180546101b190610746565b80601f01602080910402602001604051908101604052809291908181526020018280546101dd90610746565b80156102285780601f106101ff57610100808354040283529160200191610228565b820191905f5260205f20905b81548152906001019060200180831161020b57829003601f168201915b505050505090806003015490806004015f9054906101000a900467ffffffffffffffff1690806005015490806006015f9054906101000a900460ff16905087565b5f604051905090565b5f5ffd5b5f5ffd5b5f5ffd5b5f5ffd5b5f601f19601f8301169050919050565b7f4e487b71000000000000000000000000000000000000000000000000000000005f52604160045260245ffd5b6102c882610282565b810181811067ffffffffffffffff821117156102e7576102e6610292565b5b80604052505050565b5f6102f9610269565b905061030582826102bf565b919050565b5f67ffffffffffffffff82111561032457610323610292565b5b61032d82610282565b9050602081019050919050565b828183375f83830152505050565b5f61035a6103558461030a565b6102f0565b9050828152602081018484840111156103765761037561027e565b5b61038184828561033a565b509392505050565b5f82601f83011261039d5761039c61027a565b5b81356103ad848260208601610348565b91505092915050565b5f819050919050565b6103c8816103b6565b81146103d2575f5ffd5b50565b5f813590506103e3816103bf565b92915050565b5f67ffffffffffffffff82169050919050565b610405816103e9565b811461040f575f5ffd5b50565b5f81359050610420816103fc565b92915050565b5f5f5f5f5f60a0868803121561043f5761043e610272565b5b5f86013567ffffffffffffffff81111561045c5761045b610276565b5b61046888828901610389565b955050602086013567ffffffffffffffff81111561048957610488610276565b5b61049588828901610389565b94505060406104a6888289016103d5565b93505060606104b788828901610412565b92505060806104c8888289016103d5565b9150509295509295909350565b5f73ffffffffffffffffffffffffffffffffffffffff82169050919050565b5f6104fe826104d5565b9050919050565b61050e816104f4565b8114610518575f5ffd5b50565b5f8135905061052981610505565b92915050565b5f6020828403121561054457610543610272565b5b5f6105518482850161051b565b91505092915050565b610563816103b6565b82525050565b5f60208201905061057c5f83018461055a565b92915050565b5f6020828403121561059757610596610272565b5b5f6105a4848285016103d5565b91505092915050565b6105b6816104f4565b82525050565b5f81519050919050565b5f82825260208201905092915050565b8281835e5f83830152505050565b5f6105ee826105bc565b6105f881856105c6565b93506106088185602086016105d6565b61061181610282565b840191505092915050565b610625816103e9565b82525050565b7f4e487b71000000000000000000000000000000000000000000000000000000005f52602160045260245ffd5b600381106106695761066861062b565b5b50565b5f81905061067982610658565b919050565b5f6106888261066c565b9050919050565b6106988161067e565b82525050565b5f60e0820190506106b15f83018a6105ad565b81810360208301526106c381896105e4565b905081810360408301526106d781886105e4565b90506106e6606083018761055a565b6106f3608083018661061c565b61070060a083018561055a565b61070d60c083018461068f565b98975050505050505050565b7f4e487b71000000000000000000000000000000000000000000000000000000005f52602260045260245ffd5b5f600282049050600182168061075d57607f821691505b6020821081036107705761076f610719565b5b5091905056fea2646970667358221220b5757da8b2b54c1c3490602787ebfa0eadf61281525946367b3fc0037676487e64736f6c634300081c0033","linkReferences":{}},"methodIdentifiers":{"createCampaign(string,string,uint256,uint64,uint256)":"1b9621e0","s_campaigns(uint256)":"bdaa0021","s_contribution(address)":"72155f00"},"id":26}