{"abi":[{"type":"constructor","inputs":[{"name":"_usdcAddress","type":"address","internalType":"address"}],"stateMutability":"nonpayable"},{"type":"function","name":"batchContribute","inputs":[{"name":"campaignIds","type":"uint256[]","internalType":"uint256[]"},{"name":"amounts","type":"uint256[]","internalType":"uint256[]"}],"outputs":[],"stateMutability":"nonpayable"},{"type":"function","name":"contribute","inputs":[{"name":"campaignId","type":"uint256","internalType":"uint256"},{"name":"amountIn","type":"uint256","internalType":"uint256"}],"outputs":[],"stateMutability":"nonpayable"},{"type":"function","name":"createCampaign","inputs":[{"name":"_title","type":"string","internalType":"string"},{"name":"_description","type":"string","internalType":"string"},{"name":"_goal","type":"uint256","internalType":"uint256"},{"name":"_expirationDate","type":"uint64","internalType":"uint64"}],"outputs":[],"stateMutability":"nonpayable"},{"type":"function","name":"s_amountContributed","inputs":[{"name":"campaignId","type":"uint256","internalType":"uint256"},{"name":"funder","type":"address","internalType":"address"}],"outputs":[{"name":"amount","type":"uint256","internalType":"uint256"}],"stateMutability":"view"},{"type":"function","name":"s_campaigns","inputs":[{"name":"campaignId","type":"uint256","internalType":"uint256"}],"outputs":[{"name":"creator","type":"address","internalType":"address"},{"name":"title","type":"string","internalType":"string"},{"name":"description","type":"string","internalType":"string"},{"name":"goal","type":"uint256","internalType":"uint256"},{"name":"expirationDate","type":"uint64","internalType":"uint64"},{"name":"amountRaised","type":"uint256","internalType":"uint256"},{"name":"status","type":"uint8","internalType":"enum CrowdfundingPlatform.CampaignStatus"}],"stateMutability":"view"},{"type":"function","name":"usdc","inputs":[],"outputs":[{"name":"","type":"address","internalType":"contract IERC20"}],"stateMutability":"view"},{"type":"function","name":"withdraw","inputs":[{"name":"campaignId","type":"uint256","internalType":"uint256"}],"outputs":[],"stateMutability":"nonpayable"},{"type":"event","name":"CampaignCreated","inputs":[{"name":"campaignId","type":"uint256","indexed":true,"internalType":"uint256"},{"name":"creator","type":"address","indexed":true,"internalType":"address"},{"name":"title","type":"string","indexed":false,"internalType":"string"},{"name":"description","type":"string","indexed":false,"internalType":"string"},{"name":"goal","type":"uint256","indexed":false,"internalType":"uint256"},{"name":"expirationDate","type":"uint64","indexed":false,"internalType":"uint64"}],"anonymous":false},{"type":"event","name":"Contributed","inputs":[{"name":"campaignId","type":"uint256","indexed":true,"internalType":"uint256"},{"name":"funder","type":"address","indexed":true,"internalType":"address"},{"name":"amount","type":"uint256","indexed":false,"internalType":"uint256"}],"anonymous":false},{"type":"event","name":"Withdraw","inputs":[{"name":"campaignId","type":"uint256","indexed":true,"internalType":"uint256"},{"name":"funder","type":"address","indexed":true,"internalType":"address"},{"name":"amount","type":"uint256","indexed":false,"internalType":"uint256"}],"anonymous":false},{"type":"error","name":"AlreadyClaimed","inputs":[{"name":"campaignId","type":"uint256","internalType":"uint256"}]},{"type":"error","name":"CampaignDosentExist","inputs":[{"name":"campaignId","type":"uint256","internalType":"uint256"}]},{"type":"error","name":"CampaignFailed","inputs":[{"name":"campaignId","type":"uint256","internalType":"uint256"}]},{"type":"error","name":"GoalAchievedAlready","inputs":[{"name":"campaignId","type":"uint256","internalType":"uint256"}]},{"type":"error","name":"NotCompleted","inputs":[{"name":"campaignId","type":"uint256","internalType":"uint256"}]}],"bytecode":{"object":"0x608060405234801561000f575f5ffd5b50604051611c2c380380611c2c833981810160405281019061003191906100d5565b8060015f6101000a81548173ffffffffffffffffffffffffffffffffffffffff021916908373ffffffffffffffffffffffffffffffffffffffff16021790555050610100565b5f5ffd5b5f73ffffffffffffffffffffffffffffffffffffffff82169050919050565b5f6100a48261007b565b9050919050565b6100b48161009a565b81146100be575f5ffd5b50565b5f815190506100cf816100ab565b92915050565b5f602082840312156100ea576100e9610077565b5b5f6100f7848285016100c1565b91505092915050565b611b1f8061010d5f395ff3fe608060405234801561000f575f5ffd5b506004361061007b575f3560e01c80633e413bee116100595780633e413bee146100d35780636305a728146100f15780638c59091714610121578063bdaa00211461013d5761007b565b806314e6331b1461007f5780632e1a7d4d1461009b578063393857ed146100b7575b5f5ffd5b61009960048036038101906100949190611102565b610173565b005b6100b560048036038101906100b09190611178565b610177565b005b6100d160048036038101906100cc9190611290565b610649565b005b6100db610816565b6040516100e891906113a6565b60405180910390f35b61010b600480360381019061010691906113fa565b61083b565b6040516101189190611447565b60405180910390f35b61013b60048036038101906101369190611460565b61085b565b005b61015760048036038101906101529190611178565b610dce565b60405161016a979695949392919061158f565b60405180910390f35b5050565b805f60035f8481526020019081526020015f206040518060e00160405290815f82015f9054906101000a900473ffffffffffffffffffffffffffffffffffffffff1673ffffffffffffffffffffffffffffffffffffffff1673ffffffffffffffffffffffffffffffffffffffff1681526020016001820180546101f990611637565b80601f016020809104026020016040519081016040528092919081815260200182805461022590611637565b80156102705780601f1061024757610100808354040283529160200191610270565b820191905f5260205f20905b81548152906001019060200180831161025357829003601f168201915b5050505050815260200160028201805461028990611637565b80601f01602080910402602001604051908101604052809291908181526020018280546102b590611637565b80156103005780601f106102d757610100808354040283529160200191610300565b820191905f5260205f20905b8154815290600101906020018083116102e357829003601f168201915b5050505050815260200160038201548152602001600482015f9054906101000a900467ffffffffffffffff1667ffffffffffffffff1667ffffffffffffffff16815260200160058201548152602001600682015f9054906101000a900460ff1660038111156103725761037161151c565b5b60038111156103845761038361151c565b5b81525050905060038081111561039d5761039c61151c565b5b60035f8581526020019081526020015f206006015f9054906101000a900460ff1660038111156103d0576103cf61151c565b5b0361041257826040517fb3167bfa0000000000000000000000000000000000000000000000000000000081526004016104099190611447565b60405180910390fd5b610433816080015167ffffffffffffffff1682606001518360a00151610f56565b1561047557826040517f7b1418b100000000000000000000000000000000000000000000000000000000815260040161046c9190611447565b60405180910390fd5b6003805f8581526020019081526020015f206006015f6101000a81548160ff021916908360038111156104ab576104aa61151c565b5b021790555060015f9054906101000a900473ffffffffffffffffffffffffffffffffffffffff1673ffffffffffffffffffffffffffffffffffffffff1663a9059cbb338360a001516040518363ffffffff1660e01b8152600401610510929190611667565b6020604051808303815f875af115801561052c573d5f5f3e3d5ffd5b505050506040513d601f19601f8201168201806040525081019061055091906116c3565b503373ffffffffffffffffffffffffffffffffffffffff16837f9da6493a92039daf47d1f2d7a782299c5994c6323eb1e972f69c432089ec52bf8360a0015160405161059c9190611447565b60405180910390a3503373ffffffffffffffffffffffffffffffffffffffff1660035f8381526020019081526020015f205f015f9054906101000a900473ffffffffffffffffffffffffffffffffffffffff1673ffffffffffffffffffffffffffffffffffffffff1614610645576040517f08c379a000000000000000000000000000000000000000000000000000000000815260040161063c90611738565b60405180910390fd5b5050565b5f5f81548092919061065a90611783565b91905055506040518060e001604052803373ffffffffffffffffffffffffffffffffffffffff1681526020018581526020018481526020018381526020018267ffffffffffffffff1681526020015f81526020015f60038111156106c1576106c061151c565b5b81525060035f5f5481526020019081526020015f205f820151815f015f6101000a81548173ffffffffffffffffffffffffffffffffffffffff021916908373ffffffffffffffffffffffffffffffffffffffff160217905550602082015181600101908161072f9190611961565b5060408201518160020190816107459190611961565b50606082015181600301556080820151816004015f6101000a81548167ffffffffffffffff021916908367ffffffffffffffff16021790555060a0820151816005015560c0820151816006015f6101000a81548160ff021916908360038111156107b2576107b161151c565b5b02179055509050503373ffffffffffffffffffffffffffffffffffffffff165f547f610ef80c06b13af92a2fea0c71e3a5eb643a09c80a8fda0a0139e256d2db3e02868686866040516108089493929190611a30565b60405180910390a350505050565b60015f9054906101000a900473ffffffffffffffffffffffffffffffffffffffff1681565b6002602052815f5260405f20602052805f5260405f205f91509150505481565b5f60035f8481526020019081526020015f206040518060e00160405290815f82015f9054906101000a900473ffffffffffffffffffffffffffffffffffffffff1673ffffffffffffffffffffffffffffffffffffffff1673ffffffffffffffffffffffffffffffffffffffff1681526020016001820180546108dc90611637565b80601f016020809104026020016040519081016040528092919081815260200182805461090890611637565b80156109535780601f1061092a57610100808354040283529160200191610953565b820191905f5260205f20905b81548152906001019060200180831161093657829003601f168201915b5050505050815260200160028201805461096c90611637565b80601f016020809104026020016040519081016040528092919081815260200182805461099890611637565b80156109e35780601f106109ba576101008083540402835291602001916109e3565b820191905f5260205f20905b8154815290600101906020018083116109c657829003601f168201915b5050505050815260200160038201548152602001600482015f9054906101000a900467ffffffffffffffff1667ffffffffffffffff1667ffffffffffffffff16815260200160058201548152602001600682015f9054906101000a900460ff166003811115610a5557610a5461151c565b5b6003811115610a6757610a6661151c565b5b815250509050806080015167ffffffffffffffff16421115610ac057826040517f7842e7af000000000000000000000000000000000000000000000000000000008152600401610ab79190611447565b60405180910390fd5b60016003811115610ad457610ad361151c565b5b8160c001516003811115610aeb57610aea61151c565b5b03610b2d57826040517f607683e5000000000000000000000000000000000000000000000000000000008152600401610b249190611447565b60405180910390fd5b818160a001818151610b3f9190611a81565b915081815250508160025f8581526020019081526020015f205f3373ffffffffffffffffffffffffffffffffffffffff1673ffffffffffffffffffffffffffffffffffffffff1681526020019081526020015f205f828254610ba19190611a81565b9250508190555080606001518160a0015110610be55760016003811115610bcb57610bca61151c565b5b8160c001516003811115610be257610be161151c565b5b50505b8060035f8581526020019081526020015f205f820151815f015f6101000a81548173ffffffffffffffffffffffffffffffffffffffff021916908373ffffffffffffffffffffffffffffffffffffffff1602179055506020820151816001019081610c509190611961565b506040820151816002019081610c669190611961565b50606082015181600301556080820151816004015f6101000a81548167ffffffffffffffff021916908367ffffffffffffffff16021790555060a0820151816005015560c0820151816006015f6101000a81548160ff02191690836003811115610cd357610cd261151c565b5b021790555090505060015f9054906101000a900473ffffffffffffffffffffffffffffffffffffffff1673ffffffffffffffffffffffffffffffffffffffff166323b872dd3330856040518463ffffffff1660e01b8152600401610d3993929190611ab4565b6020604051808303815f875af1158015610d55573d5f5f3e3d5ffd5b505050506040513d601f19601f82011682018060405250810190610d7991906116c3565b503373ffffffffffffffffffffffffffffffffffffffff16837fb2ed2e021651f85a4754a44651fc09ac5141bc0329ce4dfe8dd712a5d04a8b3984604051610dc19190611447565b60405180910390a3505050565b6003602052805f5260405f205f91509050805f015f9054906101000a900473ffffffffffffffffffffffffffffffffffffffff1690806001018054610e1290611637565b80601f0160208091040260200160405190810160405280929190818152602001828054610e3e90611637565b8015610e895780601f10610e6057610100808354040283529160200191610e89565b820191905f5260205f20905b815481529060010190602001808311610e6c57829003601f168201915b505050505090806002018054610e9e90611637565b80601f0160208091040260200160405190810160405280929190818152602001828054610eca90611637565b8015610f155780601f10610eec57610100808354040283529160200191610f15565b820191905f5260205f20905b815481529060010190602001808311610ef857829003601f168201915b505050505090806003015490806004015f9054906101000a900467ffffffffffffffff1690806005015490806006015f9054906101000a900460ff16905087565b5f8342118015610f6557508282105b90509392505050565b5f604051905090565b5f5ffd5b5f5ffd5b5f5ffd5b5f601f19601f8301169050919050565b7f4e487b71000000000000000000000000000000000000000000000000000000005f52604160045260245ffd5b610fc982610f83565b810181811067ffffffffffffffff82111715610fe857610fe7610f93565b5b80604052505050565b5f610ffa610f6e565b90506110068282610fc0565b919050565b5f67ffffffffffffffff82111561102557611024610f93565b5b602082029050602081019050919050565b5f5ffd5b5f819050919050565b61104c8161103a565b8114611056575f5ffd5b50565b5f8135905061106781611043565b92915050565b5f61107f61107a8461100b565b610ff1565b905080838252602082019050602084028301858111156110a2576110a1611036565b5b835b818110156110cb57806110b78882611059565b8452602084019350506020810190506110a4565b5050509392505050565b5f82601f8301126110e9576110e8610f7f565b5b81356110f984826020860161106d565b91505092915050565b5f5f6040838503121561111857611117610f77565b5b5f83013567ffffffffffffffff81111561113557611134610f7b565b5b611141858286016110d5565b925050602083013567ffffffffffffffff81111561116257611161610f7b565b5b61116e858286016110d5565b9150509250929050565b5f6020828403121561118d5761118c610f77565b5b5f61119a84828501611059565b91505092915050565b5f5ffd5b5f67ffffffffffffffff8211156111c1576111c0610f93565b5b6111ca82610f83565b9050602081019050919050565b828183375f83830152505050565b5f6111f76111f2846111a7565b610ff1565b905082815260208101848484011115611213576112126111a3565b5b61121e8482856111d7565b509392505050565b5f82601f83011261123a57611239610f7f565b5b813561124a8482602086016111e5565b91505092915050565b5f67ffffffffffffffff82169050919050565b61126f81611253565b8114611279575f5ffd5b50565b5f8135905061128a81611266565b92915050565b5f5f5f5f608085870312156112a8576112a7610f77565b5b5f85013567ffffffffffffffff8111156112c5576112c4610f7b565b5b6112d187828801611226565b945050602085013567ffffffffffffffff8111156112f2576112f1610f7b565b5b6112fe87828801611226565b935050604061130f87828801611059565b92505060606113208782880161127c565b91505092959194509250565b5f73ffffffffffffffffffffffffffffffffffffffff82169050919050565b5f819050919050565b5f61136e6113696113648461132c565b61134b565b61132c565b9050919050565b5f61137f82611354565b9050919050565b5f61139082611375565b9050919050565b6113a081611386565b82525050565b5f6020820190506113b95f830184611397565b92915050565b5f6113c98261132c565b9050919050565b6113d9816113bf565b81146113e3575f5ffd5b50565b5f813590506113f4816113d0565b92915050565b5f5f604083850312156114105761140f610f77565b5b5f61141d85828601611059565b925050602061142e858286016113e6565b9150509250929050565b6114418161103a565b82525050565b5f60208201905061145a5f830184611438565b92915050565b5f5f6040838503121561147657611475610f77565b5b5f61148385828601611059565b925050602061149485828601611059565b9150509250929050565b6114a7816113bf565b82525050565b5f81519050919050565b5f82825260208201905092915050565b8281835e5f83830152505050565b5f6114df826114ad565b6114e981856114b7565b93506114f98185602086016114c7565b61150281610f83565b840191505092915050565b61151681611253565b82525050565b7f4e487b71000000000000000000000000000000000000000000000000000000005f52602160045260245ffd5b6004811061155a5761155961151c565b5b50565b5f81905061156a82611549565b919050565b5f6115798261155d565b9050919050565b6115898161156f565b82525050565b5f60e0820190506115a25f83018a61149e565b81810360208301526115b481896114d5565b905081810360408301526115c881886114d5565b90506115d76060830187611438565b6115e4608083018661150d565b6115f160a0830185611438565b6115fe60c0830184611580565b98975050505050505050565b7f4e487b71000000000000000000000000000000000000000000000000000000005f52602260045260245ffd5b5f600282049050600182168061164e57607f821691505b6020821081036116615761166061160a565b5b50919050565b5f60408201905061167a5f83018561149e565b6116876020830184611438565b9392505050565b5f8115159050919050565b6116a28161168e565b81146116ac575f5ffd5b50565b5f815190506116bd81611699565b92915050565b5f602082840312156116d8576116d7610f77565b5b5f6116e5848285016116af565b91505092915050565b7f4e6f742063726561746f720000000000000000000000000000000000000000005f82015250565b5f611722600b836114b7565b915061172d826116ee565b602082019050919050565b5f6020820190508181035f83015261174f81611716565b9050919050565b7f4e487b71000000000000000000000000000000000000000000000000000000005f52601160045260245ffd5b5f61178d8261103a565b91507fffffffffffffffffffffffffffffffffffffffffffffffffffffffffffffffff82036117bf576117be611756565b5b600182019050919050565b5f819050815f5260205f209050919050565b5f6020601f8301049050919050565b5f82821b905092915050565b5f600883026118267fffffffffffffffffffffffffffffffffffffffffffffffffffffffffffffffff826117eb565b61183086836117eb565b95508019841693508086168417925050509392505050565b5f61186261185d6118588461103a565b61134b565b61103a565b9050919050565b5f819050919050565b61187b83611848565b61188f61188782611869565b8484546117f7565b825550505050565b5f5f905090565b6118a6611897565b6118b1818484611872565b505050565b5b818110156118d4576118c95f8261189e565b6001810190506118b7565b5050565b601f821115611919576118ea816117ca565b6118f3846117dc565b81016020851015611902578190505b61191661190e856117dc565b8301826118b6565b50505b505050565b5f82821c905092915050565b5f6119395f198460080261191e565b1980831691505092915050565b5f611951838361192a565b9150826002028217905092915050565b61196a826114ad565b67ffffffffffffffff81111561198357611982610f93565b5b61198d8254611637565b6119988282856118d8565b5f60209050601f8311600181146119c9575f84156119b7578287015190505b6119c18582611946565b865550611a28565b601f1984166119d7866117ca565b5f5b828110156119fe578489015182556001820191506020850194506020810190506119d9565b86831015611a1b5784890151611a17601f89168261192a565b8355505b6001600288020188555050505b505050505050565b5f6080820190508181035f830152611a4881876114d5565b90508181036020830152611a5c81866114d5565b9050611a6b6040830185611438565b611a78606083018461150d565b95945050505050565b5f611a8b8261103a565b9150611a968361103a565b9250828201905080821115611aae57611aad611756565b5b92915050565b5f606082019050611ac75f83018661149e565b611ad4602083018561149e565b611ae16040830184611438565b94935050505056fea264697066735822122089a64b764140e5882feff010291608577ef6f0c9854e11ec29e07dbfc0cc708964736f6c634300081c0033","linkReferences":{}},"methodIdentifiers":{"batchContribute(uint256[],uint256[])":"14e6331b","contribute(uint256,uint256)":"8c590917","createCampaign(string,string,uint256,uint64)":"393857ed","s_amountContributed(uint256,address)":"6305a728","s_campaigns(uint256)":"bdaa0021","usdc()":"3e413bee","withdraw(uint256)":"2e1a7d4d"},"id":1}